:020000040800F2
:10000000D00C002001010008090100080B010008C4
:100010000D0100080F010008110100080000000098
:1000200000000000000000000000000013010008B4
:100030001501000800000000170100081514000851
:100040001B0100081B0100081B0100081B01000820
:100050001B0100081B0100081B0100081B01000810
:100060001B0100081B0100081B0100081B01000800
:100070001B0100081B0100081B0100081B010008F0
:100080001B0100081B0100081B0100081B010008E0
:100090001B0100081B0100081B0100081B010008D0
:1000A0001B0100081B0100081B0100081B010008C0
:1000B0001B0100081B010008000000001B010008D4
:1000C0001B01000800000000000000001B010008E8
:1000D00000000000B1140008C51400080000000072
:1000E0001B0100081B0100081B010008DFF80CD0F1
:1000F00000F07AFA0048004761150008D00C002093
:100100000648804706480047FEE7FEE7FEE7FEE7B1
:10011000FEE7FEE7FEE7FEE7FEE7FEE75114000814
:10012000ED00000830B505460020034600E05B1CEA
:10013000934205D2EC5CC85C201A01D1002CF6D1A8
:1001400030BD2DE9FE4F804681EA0300C00F0C460A
:10015000009021F0004123F00045B8EB0200A941D6
:1001600005D24046214690461C460B46024623F0E7
:100170000040104347D0270DC7F30A00C3F30A51CC
:100180000290401A019040286BDAC3F3130040F448
:10019000801B0098924620B10023D2EB030A63EB48
:1001A0000B0B01985946C0F14002504600F08EF901
:1001B00006460D4650465946019A00F0A6F910EB46
:1001C00008006141002487EA115284EAE7731A4368
:1001D00040D0009A62B3019A012A4FEA075215DC17
:1001E000001B61EB02014FF0004202EA0752CDE929
:1001F0000042001C41F5801132462B4600F0A6F962
:1002000003B0BDE8F08F40462146F9E7001B61EBE3
:100210000201001C41F5801300185B412018A2F573
:10022000001747EB030140EAD570B6196D4111E0A4
:100230006D084FEA360645EAC0754FEA0752001BC3
:1002400061EB0201001C41F5801149084FEA3000C2
:100250000019514132462B4603B0BDE8F04F00F083
:1002600066B90098012240000023D0EB020263EB44
:10027000E073009821464FEAE074B8EB000061EBB0
:100280000401E9E783F000435BE781F0004158E7B0
:100290002DE9FE4F81EA030404F0004421F00041FF
:1002A00000944FF0000B23F0004350EA01045ED0AD
:1002B00052EA03045BD0C3F30A54C1F30A552C4439
:1002C000A4F2F3340194A0FB0254C1F3130141F4EE
:1002D0008011C3F3130343F4801301FB024400FBBA
:1002E000034E840A970A44EA815447EA8357A4FBE1
:1002F000076802958D0A05FB07854FEA932C04FBDE
:100300000C542705029D4FEA065847EA1637B5EB0D
:1003100008056EEB070C870E920E47EA811742EA3A
:100320008312A7FB0201B6EB0B0164EB00042B0D5B
:1003300043EA0C335E1844EB1C50DA465146E7FBA7
:100340000201C5F313044FEA0B3343EA14534FEA97
:100350000432019C43EA0603A4F10C040294009CBD
:10036000CDE900B400F0F2F803B0BDE8F08F002052
:100370000146F9E72DE9F04D81EA030404F0004B52
:1003800021F0004514464FF0000A23F0004150EAE6
:10039000050220D054EA01021DD0C5F30A570246D7
:1003A000C5F31303C1F31300C1F30A5640F48015DB
:1003B00043F48013A7EB0608101BD64608F2FD385D
:1003C00073EB050002D308F1010801E092185B41CC
:1003D000B8F1000F03DA00200146BDE8F08D0020DF
:1003E0004FF48011064684460EE0171B73EB050799
:1003F00005D3121B63EB050306434CEA010C4908C5
:100400004FEA300092185B4150EA0107EDD152EA01
:10041000030012D082EA040083EA0501084305D0F4
:10042000101BAB4106D20122002306E000224FF050
:10043000004302E06FF0010253101AEB06004CEB90
:10044000085110EB0A0041EB0B01BDE8F04D00F044
:100450006EB80EB5C10F80EAE0700844CA070021EB
:1004600040F233438DE80E000A460B4600F06EF86A
:1004700003B000BD0EB540F2334102910021CDE939
:1004800000110A460B4600F061F803B000BD70B5DC
:10049000C1F30A5201F000450024C1F3130140F2F8
:1004A000FF3341F480119A4201DA002070BD40F21E
:1004B00033439A42A2F2334203DC524200F015F871
:1004C00000E090402C43F1D0404270BD202A04DB74
:1004D000203A00FA02F1002070479140C2F1200357
:1004E00020FA03F3194390407047202A04DB203A96
:1004F00021FA02F00021704721FA02F3D040C2F144
:1005000020029140084319467047202A06DBCB178A
:10051000203A41FA02F043EAE07306E041FA02F3BE
:10052000D040C2F12002914008431946704710B5EF
:10053000141E73F1000408DA401C41F10001921806
:100540005B411A4301D120F0010010BD2DE9F04DAF
:1005500092469B4611B1B1FA81F202E0B0FA80F204
:1005600020329046FFF7B2FF04460F4640EA0A00E9
:1005700041EA0B0153465A46084313D0114653EA49
:10058000010019D0C8F140025046FFF7AEFF054602
:100590000E46504659464246FFF798FF084305D09D
:1005A000012004E020463946BDE8F08D00200543D7
:1005B00046EAE0762C4337430A986305E40AA0EB49
:1005C00008000022FD0A44EA47540A3002D5002000
:1005D0000146E9E7010510196941DDE908450019FF
:1005E0006941BDE8F04DA2E7064C074D06E0E06822
:1005F00040F0010394E8070098471034AC42F6D36A
:10060000FFF778FD5C1600087C16000810B504465C
:10061000204600F014F810BD704770B5054608205C
:1006200000F0C6FF044644B1681C00F0C1FF6060E2
:10063000606810B12570204670BD0020FCE710B541
:1006400004462CB1606800F063FF204600F060FFB4
:1006500010BD000010B505E008480068401E0749BD
:10066000086010BD054800680028F5D100F084FB43
:1006700002200349087000BFF3E7000004000020D7
:100680000000002001460020012904D0022904D0E6
:10069000032906D103E0054805E0054803E00548C5
:1006A00001E0002000BF00BF70470000003801409B
:1006B000004400400048004010B504461CB12146EB
:1006C000012000F005FC10BD08B5002000F009FB7A
:1006D0000221084600F014FC0B220921002000F042
:1006E00037F90B220A21002000F032F90322012100
:1006F000002000F02DF90E21022000F001FC00F096
:100700000FF900F00BF80020034602224FF4E1310C
:100710000090012000F052FB08BD000010B500223F
:100720000121104600F03CFA054800F0F0FA0122E1
:100730001146002000F034FA024800F0E8FA10BD3B
:1007400000DD6D0000F36F062DE9F04706460D460B
:10075000174600244FF0010801205C4908705C48EE
:100760000760012000F011FB05E02046641C315CAD
:10077000012000F0B5FB305D0028F6D1002455497A
:10078000554800F0DBFA002D78D099E04F4800780A
:10079000022804D1002028554FF0020891E00120E2
:1007A00000F0FFFA0128F0D100F0EFFA2855285D9B
:1007B0000A2871D1E11E4819042248A1FFF7B2FCB2
:1007C00010B94FF0010901E04FF00009A11F4819CD
:1007D000072244A1FFF7A6FC08B9012000E0002091
:1007E000032101FB0099611F481904223FA1FFF773
:1007F00099FC08B9012000E00020052101FB0099C7
:10080000611F481905223BA1FFF78CFC08B90120A4
:1008100000E00020042101FB0099611F4819042217
:1008200036A1FFF77FFC08B9012000E00020062177
:1008300001FB0090002842D0E11E4819042227A1A4
:10084000FFF770FC10B94FF0010901E04FF000090B
:10085000A11F4819072223A1FFF764FC08B9012052
:1008600000E00020032101FB0099611F48190422C8
:100870001EA1FFF757FC10B9012001E022E0002083
:10088000052101FB0099611F4819052219A1FFF7F5
:1008900049FC10B9012001E011E00020042101FB16
:1008A0000099611F4819042214A1FFF73BFC08B905
:1008B000012000E00020062101FB009801E0641CFB
:1008C00064E700BF4046BDE8F0870000000000205C
:1008D0000400002055060008401901004F4B0D0A86
:1008E000000000004552524F520D0A0062757379A4
:1008F000000000004641494C0D0000007265616433
:100900007900000000B585B00A22694602A0FFF711
:100910001BFF05B000BD000041540D0A000000009F
:1009200010B5252000F0A0F90821012000F0B0FA50
:1009300010BD10B5252000F0B5F90521012000F00B
:10094000B5FA10BD10B504462046FFF778FE10BD7D
:1009500070B503460024042B76DC0F29FCDC0F2A3B
:10096000FADC052B71D2DFE803F0033971A7DD0053
:10097000072910DC894800688E000F25B540A84380
:10098000864D2860284600688D0002FA05F5284348
:10099000824D286020E00846CD1701EB5575ED101B
:1009A000A1EBC505AE000F25B5407C4E361D36685F
:1009B000AE437A4D2D1D2E60CD1701EB5575ED1010
:1009C000A1EBC505AD0002FA05F5744E361D36687B
:1009D0003543724E361D35600124DAE0072910DCFC
:1009E0006E4800688E000F25B540A8436B4D286007
:1009F000284600688D0002FA05F52843674D2860F7
:100A000020E00846CD1701EB5575ED10A1EBC505AB
:100A1000AE000F25B540614E361D3668AE435F4DC2
:100A20002D1D2E60CD1701EB5575ED10A1EBC50501
:100A3000AD0002FA05F5594E361D36683543574E5E
:100A4000361D35600124A4E0A4E0A1E0072910DCF4
:100A5000524800688E000F25B540A8434F4D2860CE
:100A6000284600688D0002FA05F528434B4D2860A2
:100A700020E00846CD1701EB5575ED10A1EBC5053B
:100A8000AE000F25B540454E361D3668AE43434D8A
:100A90002D1D2E60CD1701EB5575ED10A1EBC50591
:100AA000AD0002FA05F53D4E361D366835433B4E26
:100AB000361D356001246CE0072910DC37480068DA
:100AC0008E000F25B540A843344D286028460068A5
:100AD0008D0002FA05F52843304D286020E00846D5
:100AE000CD1701EB5575ED10A1EBC505AE000F2537
:100AF000B5402A4E361D3668AE43284D2D1D2E605A
:100B0000CD1701EB5575ED10A1EBC505AD0002FA4F
:100B100005F5224E361D36683543204E361D3560AC
:100B2000012436E0072910DC1C4800688E000F25E0
:100B3000B540A843194D2860284600688D0002FA88
:100B400005F52843154D286020E00846CD1701EB38
:100B50005575ED10A1EBC505AE000F25B5400F4E44
:100B6000361D3668AE430D4D2D1D2E60CD1701EBA1
:100B70005575ED10A1EBC505AD0002FA05F5074E60
:100B8000361D36683543054E361D3560012400E0BC
:100B900000BF00E00024204670BD000000080140B6
:100BA00030B503460020042B59DC0F2957DC012AFD
:100BB00055DC052B51D2DFE803F00313223141004D
:100BC000284C246801258D40AC43264D2C602C46D2
:100BD000246802FA01F52C43224D2C6001203DE0EF
:100BE000204C256801248C40A5431E4C25602468B8
:100BF00002FA01F52C431B4D2C6001202EE0194C0C
:100C0000256801248C40A543164C2560246802FA0F
:100C100001F52C43134D2C6001201FE0114C24687A
:100C200001258D40AC430F4D2C602C46246802FA00
:100C300001F52C430B4D2C6001200FE0094C256879
:100C400001248C40A543074C2560246802FA01F575
:100C50002C43044D2C60012000E000BF00E0002088
:100C600030BD00000C08014030B5C31700EBD36362
:100C70005C110B4B53F824300246C41700EBD464CC
:100C80006411A0EB44150124AC4023430146C41772
:100C900000EBD4646511024C44F8253030BD0000EF
:100CA00080E100E030B5C31700EBD3635B119B001C
:100CB00003F1E023D3F800310246C41700EBD464FB
:100CC0006411A0EB44150124AC4023430146C41732
:100CD00000EBD4646411A40004F1E024C4F80031F2
:100CE00030BD0146002001290FDC4FF0E0221269DF
:100CF00022F007024FF0E0231A611A46126942EA15
:100D000081021A6100229A6100E0002070470146CA
:100D100000204A1E4FF0E0235A6100229A6101220E
:100D20001A6100BF4FF0E0221269C2F30042002AAC
:100D3000F8D000224FF0E0231A61704710B5024648
:100D4000002091B100234FF0E024A3610123084C5F
:100D50002370084B19604FF0E0235A611B6943F080
:100D600003034FF0E024236100E0022010BD0000E7
:100D70000C000020080000204FF0E020006920F067
:100D800003004FF0E0210861704710B5044620468B
:100D9000FFF778FC034613B1586880B210BD0020FD
:100DA000FCE710B504462046FFF76CFC03461BB178
:100DB0001868C0F3401010BD0020FCE72DE9FF4F7C
:100DC00085B08A4691460598FFF75CFC0446002CE6
:100DD00056D0E06820F4B0506FEA0901C1F3400139
:100DE00040EA812009F0010140EA412040F00C0175
:100DF000129841EA0030E1680843E0605046FFF78E
:100E000039FB0022204BCDE90001FFF741FA0246F1
:100E10000B46CDE9020100201C49FFF7ABFA05465D
:100E20000E4628463146FFF732FB8346FFF711FB9B
:100E30002A463346CDE90001FFF727FA0022124B7C
:100E4000CDE90201FFF724FA0746884638464146B5
:100E5000FFF71DFB834628463146FFF718FB4BEA98
:100E60000010A060206940F6B8318843089940EA34
:100E70000130216908432061E06840F40050E060DF
:100E800009B0BDE8F08F000000003040882A914191
:100E900030B505460C462846FFF7F4FB034623B160
:100EA000D8680121A1408843D86030BD30B50546DF
:100EB0000C462846FFF7E6FB034643B1D86840F4EA
:100EC0008070D860D8680121A1400843D86030BD47
:100ED00019B1421E014B43F8221070478C000020CC
:100EE00030B505460C462846FFF7CCFB034633B128
:100EF0005C6000BF1868C0F3C0100028FAD030BD95
:100F000010B50246002022B1012A0BD0022A1BD1C3
:100F100011E00F4B5B6901248C4023430C4C63614F
:100F2000012013E00A4BDB6901248C402343084C69
:100F3000E36101200AE0064B9B6901248C402343B6
:100F4000034CA361012001E0002000BF00BF10BDE1
:100F5000001002402DE9F04106460C46FFF7D2FC96
:100F600005460127012D25D10022114614A0FFF7C7
:100F7000EBFB0022114615A0FFF7E6FB002211460D
:100F80003046FFF7E1FB0022114611A0FFF7DCFB22
:100F9000002211460DA0FFF7D7FB00221146204684
:100FA000FFF7D2FB47F230520A490BA0FFF7CCFB08
:100FB000074602E0052D00D105273846BDE8F0813F
:100FC00041542B43574A41503D000000220000008D
:100FD000222C000098000020220D0A0070B5054662
:100FE000FFF790FC0446012C16D164220D490EA097
:100FF000FFF7AAFB642200210FA0FFF7A5FB6422E4
:1010000000212846FFF7A0FB40F6B83205490EA0A4
:10101000FFF79AFB044602E0052C00D100BF2046F2
:1010200070BD00009800002041542B4349504D559D
:10103000583D310D0A00000041542B43495053459F
:10104000525645523D312C000D0A000002462AB18D
:101050000348026003480170012070470320FCE749
:10106000500000204C00002010B50348FFF724FB7F
:10107000FFF75FFC10BD00001511000870B50446B5
:10108000FFF740FC05460126012D1CD1012C06D19D
:1010900064220F490FA0FFF757FB054616E0022C0C
:1010A00006D164220A490FA0FFF74EFB05460DE06A
:1010B000032C06D1642206490EA0FFF745FB054626
:1010C00004E0032602E0052D00D10526304670BD60
:1010D0009800002041542B43574D4F44453D310D5E
:1010E0000A00000041542B43574D4F44453D320DFB
:1010F0000A00000041542B43574D4F44453D330DEA
:101100000A00000010B50248FFF7D6FA10BD000033
:10111000B511000870B500240120FFF736FE224902
:10112000224A1278885400BF2EE004EB4403204D7D
:1011300005EB83031A7A04EB440305EB8303596838
:1011400004EB440305EB83031D7A184B1B785B1CEF
:101150005B1B154D5819FEF7E5FF08B9012000E0AB
:10116000002001280FD104EB4400114951F8200060
:1011700048B100200D49087004EB44010C4A52F8B4
:101180002100804702E0641C052CCEDB00BF07482D
:101190000078401C0549087008460078322801D1C3
:1011A0000020087070BD000098000020540000204E
:1011B0001000002070B500240120FFF7E6FDC5B245
:1011C00051480088062800D100BF50480078012807
:1011D00058D14F48006840684E49098845544D48E9
:1011E0000088401C4B490880084600884A49098805
:1011F00088424DD14948FFF75FFA00214448006812
:101200004068444A1288815400203F49088041497F
:1012100008803E4908704049088041490880002400
:101220002AE004EB44033F4E366806EB83031A7A48
:1012300004EB44033B4E366806EB83035968344B9A
:101240001B685868FEF76EFF08B9012000E0002017
:10125000012810D104EB44003249096851F82000FC
:1012600040B104EB44002F4A126852F8201028487D
:101270000068884704E0641C2B4800788442D0DB77
:1012800000BF70BD2048008818B90120214908809E
:1012900032E01D48008802282EDB1E480088012805
:1012A0002AD13A2D0AD0A5F130001B49098801EB5B
:1012B000810100EB4100184908801DE016480088B4
:1012C000FFF7ABF9124908600846006870B90020C2
:1012D0000D4908800F4908800C4908700E490880A4
:1012E0000F4908800D48FFF7E7F9CAE701200749D1
:1012F000087000200749088003480088401C024904
:10130000088000BFBDE70000560000205A00002002
:1013100060000020580000205C000020151100082B
:1013200064000020500000204C00002010B500F0A8
:1013300001F810BD0CB50020019000903348006802
:1013400040F480303149086000BF3048006800F444
:10135000003000900198401C0190009818B9019845
:10136000B0F5A06FF1D12948006800F4003010B149
:101370000120009001E0002000900098012843D156
:101380002348006840F010002149086008460068C2
:1013900020F0030008600846006840F00200086082
:1013A0001A4840681949486008464068486008463D
:1013B000406840F4806048600846406820F47C1033
:1013C00048600846406840F4E810486008460068F5
:1013D00040F08070086000BF0C48006800F00070AA
:1013E0000028F9D00948406820F003000749486008
:1013F0000846406840F00200486000BF034840686B
:1014000000F00C000828F9D10CBD000000100240CB
:101410000020024010B50C48007868B90B480068FD
:1014200080474FF0E020006920F003004FF0E021FA
:1014300008610020886106E003480078012802D195
:1014400002480068804710BD0C0000200800002002
:1014500010B51348006840F00100114908600846C3
:101460004068104908400E494860084600680E4927
:1014700008400B4908600846006820F48020086096
:101480000846406820F4FE0048604FF41F00886062
:10149000FFF74CFF4FF000600449086010BD0000EA
:1014A000001002400000FFF8FFFFF6FE08ED00E02C
:1014B00010B50348006810B101490868804710BDA5
:1014C0008C00002010B50348406810B101494868FD
:1014D000804710BD8C00002002E008C8121F08C120
:1014E000002AFAD170477047002001E001C1121FA5
:1014F000002AFBD1704710B502210846FFF700FD16
:10150000032200210846FFF723FAFFF7DDF810BD9C
:1015100010B5002821D0114B0022001F196803E0EC
:10152000814203D80A4649680029F9D152B11368AB
:10153000841A9C4204D1006818441060104602E0EE
:10154000506000E0186039B102680B1A934203D171
:101550000B681A4402604968416010BD8400002095
:10156000FFF7C9FF02210848FFF770FD0320FFF7CE
:1015700085FD06A108A0FFF7EDFC0BA0FFF72EFDEF
:10158000FFF772FD00BFFEE76C000020482A232A07
:10159000233130232A232A0048656C6C6F20576F53
:1015A000726C6432000000003830383000000000F7
:1015B000F0B50B30154D20F007010024144A0FE060
:1015C00003688B420BD38B4205D95E1A43184768D8
:1015D000C3E9006700E04368136002C004E0021D35
:1015E00010680028ECD12046002802D1286808B1F4
:1015F0000020F0BD064A07481060074A121A22F080
:101600000702C0E9002401202860D7E788000020F5
:1016100084000020D4000020D0080020726561649E
:10162000790D0A004950442C000000002C434C4F17
:1016300053454400434F4E4E454354204641494C88
:10164000000000002C434F4E4E4543540000000064
:1016500043414E004A4554534F4E00007C1600084B
:10166000000000208C000000D814000808170008B3
:101670008C000020440C0000E81400080100000069
:10168000000000000000000000000000000000005A
:101690001C16000807000000190600084416000880
:1016A00008000000190600082C16000807000000BA
:1016B00005110008241600080400000000000000C6
:1016C000341600080C0000000000000000000000BC
:1016D000000000000000000000000000000000000A
:1016E00000000000010000000D0600085016000870
:1016F0000300000045090008541600080600000019
:081700000000000000000000E1
:04000005080000ED02
:00000001FF
