:020000040800F2
:10000000B80600208901000891010008930100084A
:100010009501000897010008990100080000000000
:100020000000000000000000000000009B0100082C
:100030009D010008000000009F010008050E000857
:10004000A3010008A3010008A3010008A301000800
:10005000A3010008A3010008A3010008A3010008F0
:10006000A3010008A3010008A3010008A3010008E0
:10007000A3010008A3010008A3010008A3010008D0
:10008000A3010008A3010008A3010008A3010008C0
:10009000A3010008A3010008A3010008A3010008B0
:1000A000A3010008A3010008A3010008A3010008A0
:1000B000A3010008A301000800000000A30100083C
:1000C000A30100080000000000000000A3010008D8
:1000D00000000000A10E0008B50E0008000000009E
:1000E000A3010008A3010008A301000800F002F822
:1000F00000F03AF80AA090E8000C82448344AAF188
:100100000107DA4501D100F02FF8AFF2090EBAE885
:100110000F0013F0010F18BFFB1A43F0010318473B
:10012000C0160000E0160000103A24BF78C878C15D
:10013000FAD8520724BF30C830C144BF04680C60ED
:10014000704700000023002400250026103A28BF35
:1001500078C1FBD8520728BF30C148BF0B60704739
:100160001FB51FBD10B510BD00F07CF81146FFF79C
:10017000F7FF00F0BFFE00F09AF803B4FFF7F2FFBC
:1001800003BC00F0A1F80000094880470948004777
:10019000FEE7FEE7FEE7FEE7FEE7FEE7FEE7FEE737
:1001A000FEE7FEE704480549054A064B7047000094
:1001B000410E0008ED000008B8000020B80600203D
:1001C000B8020020B802002040EA010370B59B0786
:1001D0002ED14FF00136042A2AD308C810C99D1B1E
:1001E0009D43121F15EAC61517D0D8B2E1B2401AC6
:1001F00050EA056110D198B2A1B2401A50EA054107
:100200000AD123F07F4024F07F41401A50EA0521B3
:1002100002D1180EA0EB146070BDA342DBD018BA57
:1002200021BA884201D9012070BD4FF0FF3070BD66
:100230000AB9002070BD10F8013B11F8014B63B101
:10024000A3420AD1521E08D010F8013B11F8014B0D
:100250001BB1A34201D1521EEDD1181B70BD7047D6
:1002600070477047754600F02BF8AE4605006946AA
:10027000534620F00700854618B020B5FFF792FFDF
:10028000BDE820404FF000064FF000074FF0000897
:100290004FF0000B21F00701AC46ACE8C009ACE818
:1002A000C009ACE8C009ACE8C0098D46704710B57C
:1002B0000446AFF300802046BDE81040FFF75DBF65
:1002C000004870475400002001491820ABBEFEE7EB
:1002D000260002007047000010B505E008480068DD
:1002E000401E0749086010BD054800680028F5D188
:1002F00000F040FC02200349087000BFF3E7000053
:10030000040000200000002010B50A22002102A0F5
:1003100000F060F810BD0000415445310D0A0000A6
:1003200001460020012904D0022904D0032906D166
:1003300003E0054805E0054803E0054801E000202A
:1003400000BF00BF7047000000380140004400407B
:100350000048004008B5002000F0C0FB022108461C
:1003600000F0B2FC0B220921002000F015F90B224D
:100370000A21002000F010F903220121002000F0E2
:100380000BF90E21022000F09FFC00F0FFF800F0B6
:100390000BF80020034602224FF4E13100900120C7
:1003A00000F00AFC08BD000010B500220121104633
:1003B00000F01AFA054800F0A7FB012211460020C0
:1003C00000F012FA024800F09FFB10BDA086010069
:1003D000804F12002DE9F04706460D4617460024CF
:1003E0004FF0010801205C4908705C48076001205B
:1003F00000F0C9FB05E02046641C315C012000F0E0
:1004000053FC305D0028F6D1002455494FF47A7032
:1004100000F092FB002D78D099E04F480078022838
:1004200004D1002028554FF0020891E0012000F08F
:10043000B6FB0128F0D100F0A6FB2855285D0A285C
:1004400071D1E11E4819042246A1FFF7BDFE10B983
:100450004FF0010901E04FF00009A11F48190722E0
:1004600042A1FFF7B1FE08B9012000E000200321FE
:1004700001FB0099611F481904223EA1FFF7A4FE69
:1004800008B9012000E00020052101FB0099211F8F
:100490004819052239A1FFF797FE08B9012000E0AD
:1004A0000020042101FB0099E11E4819042235A116
:1004B000FFF78AFE08B9012000E00020062101FBB9
:1004C0000090002842D0E11E4819042225A1FFF720
:1004D0007BFE10B94FF0010901E04FF00009A11FA8
:1004E0004819072221A1FFF76FFE08B9012000E09B
:1004F0000020032101FB0099611F481904221DA15E
:10050000FFF762FE10B9012001E022E00020052182
:1005100001FB0099211F4819052218A1FFF754FE7D
:1005200010B9012001E011E00020042101FB009935
:10053000E11E4819042213A1FFF746FE08B9012065
:1005400000E00020062101FB009801E0641C64E744
:1005500000BF4046BDE8F0870000002004000020F6
:10056000D90200084F4B0D0A000000004552524FBF
:10057000520D0A0062757379000000004641494C33
:100580000D000000726561647900000010B508215B
:10059000012000F07BFB10BD70B503460024042B46
:1005A00076DC0F29FCDC0F2AFADC052B71D2DFE8A0
:1005B00003F0033971A7DD00072910DC89480068C2
:1005C0008E000F25B540A843864D28602846006858
:1005D0008D0002FA05F52843824D286020E0084688
:1005E000CD1701EB5575ED10A1EBC505AE000F253C
:1005F000B5407C4E361D3668AE437A4D2D1D2E60BB
:10060000CD1701EB5575ED10A1EBC505AD0002FA54
:1006100005F5744E361D36683543724E361D35600D
:100620000124DAE0072910DC6E4800688E000F25EF
:10063000B540A8436B4D2860284600688D0002FA3B
:1006400005F52843674D286020E00846CD1701EBEB
:100650005575ED10A1EBC505AE000F25B540614EF7
:10066000361D3668AE435F4D2D1D2E60CD1701EB54
:100670005575ED10A1EBC505AD0002FA05F5594E13
:10068000361D36683543574E361D35600124A4E0CB
:10069000A4E0A1E0072910DC524800688E000F2575
:1006A000B540A8434F4D2860284600688D0002FAE7
:1006B00005F528434B4D286020E00846CD1701EB97
:1006C0005575ED10A1EBC505AE000F25B540454EA3
:1006D000361D3668AE43434D2D1D2E60CD1701EB00
:1006E0005575ED10A1EBC505AD0002FA05F53D4EBF
:1006F000361D366835433B4E361D356001246CE0AF
:10070000072910DC374800688E000F25B540A84344
:10071000344D2860284600688D0002FA05F528430C
:10072000304D286020E00846CD1701EB5575ED10DF
:10073000A1EBC505AE000F25B5402A4E361D366823
:10074000AE43284D2D1D2E60CD1701EB5575ED10D4
:10075000A1EBC505AD0002FA05F5224E361D36683F
:100760003543204E361D3560012436E0072910DC64
:100770001C4800688E000F25B540A843194D28601D
:10078000284600688D0002FA05F52843154D2860BB
:1007900020E00846CD1701EB5575ED10A1EBC5051E
:1007A000AE000F25B5400F4E361D3668AE430D4DD9
:1007B0002D1D2E60CD1701EB5575ED10A1EBC50574
:1007C000AD0002FA05F5074E361D36683543054E75
:1007D000361D3560012400E000BF00E00024204603
:1007E00070BD00000008014030B503460020042B16
:1007F00059DC0F2957DC012A55DC052B51D2DFE8E3
:1008000003F0031322314100284C246801258D4058
:10081000AC43264D2C602C46246802FA01F52C438B
:10082000224D2C6001203DE0204C256801248C40A5
:10083000A5431E4C2560246802FA01F52C431B4D8C
:100840002C6001202EE0194C256801248C40A54322
:10085000164C2560246802FA01F52C43134D2C60D8
:1008600001201FE0114C246801258D40AC430F4D41
:100870002C602C46246802FA01F52C430B4D2C60A9
:1008800001200FE0094C256801248C40A543074C4A
:100890002560246802FA01F52C43044D2C600120E8
:1008A00000E000BF00E0002030BD00000C08014067
:1008B00070B504460020042C7EDC082901DB0F29DA
:1008C00001DD002978D1032A01DB072A01DD002A96
:1008D000F8D1032B01DB072B01DD002BF2D1062C15
:1008E0006BD2DFE804F00323435985AE0025794E2F
:1008F0003570794D6D6825F00305774E7560354686
:100900006D6845F00105756035462D6825F4802534
:10091000356035462D6845F48035356000BF6E4D35
:100920002D68C5F34045002DF9D0AFE00025694E94
:100930003570694D6D6825F00305674E7560354665
:100940006D6845F00105756035462D6845F48025D4
:10095000356035462D6845F48035356000BF5E4D05
:100960002D68C5F34045002DF9D08FE00025594E84
:100970003570594D6D6825F00305574E7560354645
:100980002D6845F00105356000BF534D2D68C5F356
:100990004005002DF9D079E001254E4E35704E4DC1
:1009A0002D6825F080754C4E356000BF4A4D2D688E
:1009B000C5F34065002D01E08AE066E0F6D1464DC2
:1009C0002D6845F48035444E356000BF424D2D689A
:1009D000C5F34045002DF9D03F4D6D6845F4803595
:1009E0003D4E756035466D6825F4003575604DE007
:1009F0000125384E3570384D2D6825F08075364EFE
:100A0000356000BF344D2D68C5F34065002DF9D128
:100A1000314D2D6845F480352F4E356000BF2E4D89
:100A20002D68C5F34045002DF9D02B4D6D6845F478
:100A30008035294E756035466D6845F40035756022
:100A400024E00125234E3570234D2D6825F0807557
:100A5000214E356000BF204D2D68C5F34065002D47
:100A6000F9D11D4D2D6845F001051B4E356000BFC5
:100A7000194D2D68C5F34005002DF9D0164D6D6850
:100A800025F48035144E756000E000BF00BF124DA4
:100A90006D6825F0F005104E756035466D6845EAC5
:100AA0000115756035466D6825F4E065756035465D
:100AB0006D6845EA0225756035466D6825F4605518
:100AC000756035466D6845EAC3257560012000E014
:100AD000002070BD080000200010024001460020E8
:100AE00001290FDC4FF0E022126922F007024FF0DB
:100AF000E0231A611A46126942EA81021A61002251
:100B00009A6100E000207047014600204A1E4FF025
:100B1000E0235A6100229A6101221A6100BF4FF05E
:100B2000E0221269C2F30042002AF8D000224FF0FE
:100B3000E0231A617047000010B50246002091B111
:100B400000234FF0E024A3610123084C2370084BDD
:100B500019604FF0E0235A611B6943F003034FF023
:100B6000E024236100E0022010BD000010000020FE
:100B70000C0000204FF0E020006920F003004FF04F
:100B8000E0210861704710B504462046FFF7C8FB16
:100B9000034613B1586880B210BD0020FCE710B5C1
:100BA00004462046FFF7BCFB03461BB11868C0F3A0
:100BB000401010BD0020FCE72DE9FF4F85B08A46AC
:100BC00091460598FFF7ACFB0446002C56D0E06830
:100BD00020F4B0506FEA0901C1F3400140EA8120DE
:100BE00009F0010140EA412040F00C01129841EA6D
:100BF0000030E1680843E060504600F0E9FB002265
:100C0000204BCDE9000100F0F7FB02460B46CDE991
:100C1000020100201C4900F03DFA05460E46284618
:100C2000314600F08FFB834600F0BBFB2A4633467B
:100C3000CDE9000100F0DEFC0022124BCDE90201FB
:100C400000F0DAFB074688463846414600F07AFB5A
:100C500083462846314600F075FB4BEA0010A06041
:100C6000206940F6B8318843089940EA013021698B
:100C700008432061E06840F40050E06009B0BDE83E
:100C8000F08F00000000304080845E4130B50546A2
:100C90000C462846FFF744FB034623B1D8680121E0
:100CA000A1408843D86030BD30B505460C46284683
:100CB000FFF736FB034633B15C6000BF1868C0F332
:100CC000C0100028FAD030BD10B50246002022B175
:100CD000012A0BD0022A1BD111E00F4B5B690124C2
:100CE0008C4023430C4C6361012013E00A4BDB6909
:100CF00001248C402343084CE36101200AE0064BA9
:100D00009B6901248C402343034CA361012001E033
:100D1000002000BF00BF10BD0010024010B500F061
:100D200001F810BD0CB50020019000903348006818
:100D300040F480303149086000BF3048006800F45A
:100D4000003000900198401C0190009818B901985B
:100D5000B0F5A06FF1D12948006800F4003010B15F
:100D60000120009001E0002000900098012843D16C
:100D70002348006840F010002149086008460068D8
:100D800020F0030008600846006840F00200086098
:100D90001A48406819494860084640684860084653
:100DA000406840F4806048600846406820F47C1049
:100DB00048600846406840F4E8104860084600680B
:100DC00040F08070086000BF0C48006800F00070C0
:100DD0000028F9D00948406820F00300074948601E
:100DE0000846406840F00200486000BF0348406881
:100DF00000F00C000828F9D10CBD000000100240E2
:100E00000020024010B50C48007868B90B48006813
:100E100080474FF0E020006920F003004FF0E02110
:100E200008610020886106E003480078012802D1AB
:100E300002480068804710BD100000200C00002010
:100E400010B51348006840F00100114908600846D9
:100E50004068104908400E494860084600680E493D
:100E600008400B4908600846006820F480200860AC
:100E70000846406820F4FE0048604FF41F00886078
:100E8000FFF74CFF4FF000600449086010BD000000
:100E9000001002400000FFF8FFFFF6FE08ED00E042
:100EA00010B50348006810B101490868804710BDBB
:100EB0001400002010B50348406810B1014948688B
:100EC000804710BD1400002010B500231A461946B3
:100ED0000220FFF7EDFC02210846FFF7F5FE032292
:100EE00000210846FFF758FBFFF734FA0120FFF70F
:100EF000F5FD10BD0124FFF7E7FF00231A46194650
:100F00000220FFF7D5FC12E00A22094909A0FFF7E9
:100F100061FA0446FFF7F8F9012C03D10748FFF7FF
:100F2000F3FD04E00648FFF7EFFDFFF7EDF9EBE70F
:100F30002000002041540D0A0000000000B4C40449
:100F4000000E270710B591EA030F48BF83F0004356
:100F500000F16483841A71EB030C05D2121943EB80
:100F60000C03001B61EB0C01DFF824E14FEA115484
:100F7000A4EB135C1EEA430F18BF9EEA445F73D0D4
:100F800023EA0E03DCF1200E21EA045143F480131E
:100F900032D322FA0CFE10EB0E0023FA0CFE41EBCA
:100FA0000E01CCF1200E03FA0EFE10EB0E0051F1F3
:100FB0000001B1F5801FCCF1200E32D201EB0451BB
:100FC00012FA0EF2BDE8104058BF7047401C38BFFF
:100FD0005FEA420218BF7047002814BF20F00100EA
:100FE00041F100014FEA410313F5001F38BF70477C
:100FF000A1F1C04100F0F8BA012A43EB0302ACF1C1
:10100000200CDCF11F0E32BF4FF0000E23FA0CF360
:1010100010EB030041EB0451B4EB115FD0D0A1EB16
:10102000045101F5801149085FEA300001EB0451D9
:101030000ED350F1000038BF12FA0EFE08D1BDE801
:101040001040C9E7401C38BF5FEA4202CAD1C3E77B
:10105000BDE810404FEA410313F5001F38BF704749
:10106000A1F1C04100F0C0BA9EEA445F08D011EA85
:101070005E0FBDE8104004BF01F000410020704742
:10108000BDE8104070B500F061FA00BF64FBBE3EE1
:101090000000E0FF2DE9C04130B4DFF8A0C23CEA17
:1010A000111418BF3CEA131400F0EC8081EA030528
:1010B0001CEA111444EAD57418BF1CEA131500F099
:1010C000C780A4EB05044FF0004545EAC12145EA7D
:1010D000C32341EA505143EA525304F17F749942C9
:1010E00004F500344FEAC0204FEAC22208BF904204
:1010F00000F09C804FEA13650FF24016765D4FEAD0
:10110000134506FB05F7C7F1807706FB07F74FEAA3
:10111000D737A7FB03687642C8F58038A7FB06CE11
:1011200038BFA8F1010807FB08E64FF0000EA6FB48
:10113000028CE6FB03CEDCF1000CCEF1004E38BF92
:10114000AEF1010EA6FB0C584FF000074FF0000562
:10115000E6FB0E87A1FB08C6A0FB07CE16EB0E062A
:1011600045F10005E1FB076515F1E04E7EBFA4F5F2
:1011700080345FEA46066D4116F1800745F10005AF
:101180004FEA17274FEA066647EA0567A6F1DE46EB
:10119000B6F1805F4FEA15251FD9384624F0010CBF
:1011A00005EBC471BCF1FE6F01EB0C1102D8F0BC71
:1011B000BDE8008124425CBF01F5801E9EEAC47F29
:1011C00002D4F0BCBDE80081244238D4F0BCA1F1C7
:1011D000C041BDE8004100F007BA4FEAD22242EA1E
:1011E00043524FEAD323A7FB02864FEAD02040EABE
:1011F000415007FB03661EEA0E0F4FEAD12105FBA3
:10120000026658BFA6EB0056B6EB00564FEA520EE8
:101210004EEAC37E18EB0E0E56EB530EBDD518EBFF
:1012200002085E417F1C55F10005B6E74FF48015BA
:101230004FF000074FF000064FF00008ADE7F0BC9C
:101240004FF0000001F1C04101F00041BDE8008114
:1012500011EA0C1F0CEA131500D00CE013EA0C1F66
:1012600000F025804FF00000F0BC81EA030101F09E
:101270000041BDE80081F0BCBDE8004181EA030106
:1012800000F0B2B9F0BCBDE8004170B500F05EF905
:10129000097EFC3E00F007B881EA03014FF0000030
:1012A00001F00041704781EA030100F09DB9F0BCF4
:1012B000BDE800414FF0000021497047FFFDFBF9F8
:1012C000F7F5F4F2F0EEEDEBE9E8E6E4E3E1E0DE79
:1012D000DDDBDAD8D7D5D4D3D1D0CFCDCCCBCAC8EB
:1012E000C7C6C5C4C2C1C0BFBEBDBCBBBAB9B8B712
:1012F000B6B5B4B3B2B1B0AFAEADACABAAA9A8A805
:10130000A7A6A5A4A3A3A2A1A09F9F9E9D9C9C9BD2
:101310009A9999989797969595949393929191907D
:101320008F8F8E8E8D8C8C8B8B8A8989888887870E
:101330008685858484838382828181800000FF0783
:101340000000F87F4FEA41034FEA5353A3F580634F
:10135000D3F11E03C8BFD3F1210C0CDD4FF00042C6
:1013600042EAC12242EA505232FA03FC8CEAE17CA2
:10137000ACEBE1707047102BC4BF0020704703F541
:10138000787CBCF1FF3F04D06FF0004282EA21007C
:10139000704770B500F0DAF8499224800020704759
:1013A000F2E710F0004248BF4042B0FA80F310FA72
:1013B00003F10AD0C3F11D0303F580634FEA4150E6
:1013C00002EB035202EBD12170474FF0000070474F
:1013D000B0FA80F310FA03F10AD0C3F11D0303F54C
:1013E00080634FEA41504FEA035202EBD12170472C
:1013F0004FF0000070470000DFF848C170B51CEAEC
:10140000111E1EBF1CEA13159EEA0C0F95EA0C0F65
:1014100000F06F8081EA030423EA4C134EEAD47E85
:1014200021EA4C1141F4801143F48013AE44A1FB36
:10143000024CA0FB0365AEF17F7E361955EB0C051F
:10144000A1FB034C4CF10003A0FB021C16EB0C06A5
:10145000654153F10003094218BF46F0010613F439
:10146000007F0BD14FEA03314FEA0530340341EAE4
:10147000155140EA16506FF003020AE04FEAC3210B
:101480004FEAC520F40241EA555140EA56506FF048
:10149000020202EB2E4201EB025585EACE710AD020
:1014A0005FEA440C18BF24F0004450F1000041F101
:1014B000000120EAD47040F2FE7C624500D270BD8B
:1014C000A84214BF4FF080444FF04044002E08BFA4
:1014D0000024BEF1806FA8BFA1F1C041BDE87040FB
:1014E00080F282804FF0000001F1C04101F0004124
:1014F00070479EEA0C0F0CEA131518BF95EA0C0F03
:1015000006D04FF0000081EA030E0EF0004170BDDE
:1015100000F01CF88900013E00F007B800F009B89F
:101520004FEA430C5FEA5C5C08D081EA030100F0FB
:101530005BB84FEA410C5FEA5C5CF6D14FF000000B
:10154000014970470000FF070000F87F0EF1020E0E
:101550002EF0030E5EF8046B364205D4012A43EBED
:10156000030515F5001F12D8012841EB010C1CF5ED
:10157000001F0CD80ED14FEAD17C15F5001F0CEBE3
:101580004C0C0CF1020C08BF4CEBD37C04E04FF088
:10159000080C01E04FEAD37C0CEB4C0526FA05F66B
:1015A00006F00706B6F1040C06D20EEB860CBDE879
:1015B00070404CF0010C6047DFE80CF0090B0202B0
:1015C0004FF000414FF00000A1F5002170BD194619
:1015D0001046012851EB010418BFD4F5001484BF54
:1015E000002001F0004170BD0808A0F500114FEA8D
:1015F0003101704791EA030F10B581F000413FF5CA
:10160000A9AC83F0004300F009B8000010B591EADE
:10161000030F48BF83F000433FF59CAC841A71EB85
:10162000030C07D212198CF0004C43EB0C03001B87
:1016300061EB0C01DFF8A4E14FEA1154A4EB135C59
:101640001EEA430F18BF9EEA445F00F0B08023EA11
:101650006E03524221EA0451C3EB6E0338BF5B1E96
:10166000DCF1200E25D322FA0CFE10EB0E0043FA1B
:101670000CFE41EB0E01CCF1200E03FA0EFE10EB36
:101680000E0051F10001CCF1200E29D412FA0EF215
:1016900001EB0451BDE8104058BF7047401C1CBF0F
:1016A000B2F1004F704700280CBF491C20F0010028
:1016B000704712EB020E43EB030218BF4FF0010E0E
:1016C0004EEA4202ACF1200CDCF11E0E54D943FA72
:1016D0000CFE10EB0E0051F1FF31CCF11E0ED5D5F2
:1016E0000EF1010E12FA0EFE404141EB010101EB39
:1016F000445C5FEA5C5C10D910EBDE7001EB0451D6
:1017000038BFBEF1004FBDE8104018BF7047002839
:101710000CBF491C20F00100704730D24FEAD42C96
:1017200011F5001124F400641BD0B1FA81F20B3AD8
:10173000A41AA41ED2F12003914030FA03F31943F6
:10174000904001EBCC71002C01EB0451BDE810403E
:10175000A8BF704701F1C0414FF0000001F0004107
:101760007047B0FA80F310FA03F100D110BDE41A0B
:10177000173C4805C90AE4E701EB045110BD4910C4
:1017800001EB0451BDE810404FEA300002E04FF099
:10179000000170474A0008BF0042F8D0B2F5001FB0
:1017A00028BF704701F000414FF0000070479EEAEB
:1017B000445F07D011EA5E0FBDE8104004BF00216E
:1017C00000207047BDE8104070B5FFF7BFFE00BFB6
:1017D00040DFF63E83F00041104670470000E0FF16
:1017E0000018000800000020140000002801000874
:1017F0001418000814000020A4060000440100088A
:1018000001000000000000000000000000000000D7
:0418100000000000D4
:04000005080000ED02
:00000001FF
