:020000040800F2
:1000000000500020910F0008E10F0008E10F0008E8
:10001000E10F0008E10F0008E10F000800000000F8
:10002000000000000000000000000000E10F0008D8
:10003000E10F000800000000E10F00089D0C00081F
:10004000E10F0008E10F0008E10F0008E10F0008D0
:10005000E10F0008E10F0008E10F0008E10F0008C0
:10006000E10F0008E10F0008E10F0008E10F0008B0
:10007000E10F0008E10F0008E10F0008E10F0008A0
:10008000E10F0008E10F0008E10F0008E10F000890
:10009000E10F0008E10F0008E10F0008E10F000880
:1000A000E10F0008E10F0008E10F0008E10F000870
:1000B000E10F0008E10F0008E10F0008E10F000860
:1000C000E10F0008E10F0008E10F0008E10F000850
:1000D000E10F0008A50D0008E10F0008E10F00087E
:1000E000E10F0008E10F000800000000E10F000828
:1000F000E10F0008E10F0008E10F0008E10F000820
:10010000E10F0008E10F0008E10F0008E10F00080F
:10011000E10F0008E10F0008E10F0008E10F0008FF
:10012000E10F0008E10F0008E10F0008E10F0008EF
:1001300010B5054C237833B9044B13B10448AFF321
:1001400000800123237010BD080000200000000083
:100150002C10000808B5034B1BB103490348AFF34B
:10016000008008BD000000000C0000202C100008DA
:1001700080B485B000AF0346FB71FB792F2B06D905
:10018000FB79392B03D8FB79303BFB7302E0FB7919
:10019000373BFB73FB7B18461437BD4680BC70476A
:1001A00080B586B000AF78600023FB757B68002BBC
:1001B00000F0B68000237B757B6801331B78DBB2CF
:1001C0001846FFF7D5FF03463B757B6802331B7863
:1001D000DBB21846FFF7CCFF0346FB743B7D1B01E7
:1001E0005AB297F9133013435BB2BB747B68033385
:1001F0001B78DBB21846FFF7BBFF03467B747B68B6
:1002000004331B78DBB21846FFF7B2FF03463B749A
:100210007B6805331B78DBB21846FFF7A9FF03465E
:10022000FB737B6806331B78DBB21846FFF7A0FF31
:100230000346BB733E4B1B681B0C1B043C4A1360FC
:10024000BA7B3B4B1B681343FA7B120113433A7C86
:10025000120213437A7C12031343354A13600023BE
:10026000BB754BE0BB7D9B0009337A6813441B7858
:10027000DBB21846FFF77CFF03467B74BB7D9B0017
:100280000A337A6813441B78DBB21846FFF770FF15
:1002900003463B74BB7D9B000B337A6813441B7889
:1002A000DBB21846FFF764FF0346FB73BB7D9B0080
:1002B0000C337A6813441B78DBB21846FFF758FFFB
:1002C0000346BB73BB7B1B021AB2FB7B1B031BB237
:1002D00013431AB23B7C1BB213431AB27B7C1B0143
:1002E0001BB213431AB27B7D91B2124A22F813104B
:1002F0007B7D01337B75BB7D0133BB75BB7C5B08AC
:10030000DBB2BA7D9A42ADD3094B1868BB7C5B085F
:10031000DBB21A46074900F0C3F80346FB7501E05B
:100320000223FB75FB7D18461837BD4680BD00BF14
:10033000000000202800002080B582B000AF786067
:100340007B6808331B78DBB2342B0ED0342B0EDCE9
:10035000302B02D0312B04D009E07868FFF720FF62
:1003600006E0054B01221A7002E000BF00E000BF6A
:1003700000BF0837BD4680BD2400002080B483B094
:1003800000AF074B1B78FB71FB79012B02D1044BAB
:1003900000221A70FB7918460C37BD4680BC7047A6
:1003A0002400002080B483B000AF0023FB710C4B0D
:1003B0001B68DB0903F00103012B08D1094B0A4A32
:1003C0001A60084B094A1A600023FB7101E00123FF
:1003D000FB71FB7918460C37BD4680BC704700BFE7
:1003E000102002400420024023016745AB89EFCD75
:1003F00080B400AF044B1B68034A43F080031360D2
:1004000000BFBD4680BC70471020024080B582B05E
:1004100000AF0346FB7100BF1E4B1B6803F00103D6
:10042000012BF9D000BFFFF7BDFF0346012BFAD126
:10043000184B1B68174A43F020031360164B1B68C8
:10044000154A43F002031360FB799B02134A03F140
:1004500000631360104B1B680F4A43F040031360A6
:1004600000BF0C4B1B6803F00103012BF9D0094BB3
:100470001B68084A43F020031360074B1B68064AB9
:1004800023F002031360FFF7B3FF00BF0837BD4638
:1004900080BD00BF0C20024010200240142002400A
:1004A00080B586B000AFF860B9601346FB710023D9
:1004B000FB75BB68002B3BD00023BB7572B600BF39
:1004C000FFF770FF0346012BFAD10023BB7525E02F
:1004D0001B4B1B681A4A43F001031360BB7D5B0092
:1004E000BA681A44FB6812881A80FB680233FB6002
:1004F00000BF144B1B6803F00103012BF9D0114B13
:100500001B68104A43F0200313600D4B1B680C4A14
:1005100023F001031360BB7D0133BB75BA7DFB790A
:100520009A42D5D362B6FFF763FF0123FB7501E062
:100530000223FB75FB7D18461837BD4680BD00BF02
:10054000102002400C20024080B485B000AF03466A
:100550003960FB710023FB733B68002B0CD0FB79E7
:100560009B0203F10063BB60BB681B689AB23B68E7
:100570001A800123FB7301E00223FB73FB7B184607
:100580001437BD4680BC704780B582B000AF0D23E4
:10059000FB7106E0FB791846FFF738FFFB79013362
:1005A000FB71FB79252BF5D900BF00BF0837BD468D
:1005B00080BD000080B485B000AF0346FB710B46E0
:1005C000BB7113467B710023FB73FB79042B00F294
:1005D0002E81BB790F2B00F22A817B790F2B00F241
:1005E0002681FB79042B00F2208101A252F823F02E
:1005F0000506000873060008E10600084F0700081A
:10060000BD070008BB79072B16D88D4B1A68BB793C
:100610009B000F2101FA03F3DB43894913400B6070
:10062000874B1B687979BA79920001FA02F2114678
:10063000834A0B43136019E0824B1A68BB7903F0BD
:1006400007039B000F2101FA03F3DB437D491340AD
:100650000B607C4B1B687979BA7902F00702920033
:1006600001FA02F21146774A0B4313600123FB7330
:10067000DCE0BB79072B16D8714B1A68BB799B005D
:100680000F2101FA03F3DB436D4913400B606C4B00
:100690001B687979BA79920001FA02F21146684A28
:1006A0000B43136019E0674B1A68BB7903F007032B
:1006B0009B000F2101FA03F3DB43624913400B60F7
:1006C000604B1B687979BA7902F00702920001FA4F
:1006D00002F211465B4A0B4313600123FB73A5E052
:1006E000BB79072B16D8564B1A68BB799B000F2194
:1006F00001FA03F3DB43524913400B60504B1B6874
:100700007979BA79920001FA02F211464C4A0B4308
:10071000136019E04B4B1A68BB7903F007039B0089
:100720000F2101FA03F3DB43464913400B60454BAD
:100730001B687979BA7902F00702920001FA02F295
:100740001146404A0B4313600123FB736EE0BB79F3
:10075000072B16D83A4B1A68BB799B000F2101FA78
:1007600003F3DB43364913400B60354B1B68797943
:10077000BA79920001FA02F21146314A0B43136032
:1007800019E0304B1A68BB7903F007039B000F2177
:1007900001FA03F3DB432B4913400B60294B1B6821
:1007A0007979BA7902F00702920001FA02F2114651
:1007B000244A0B4313600123FB7337E0BB79072BFB
:1007C00016D81F4B1A68BB799B000F2101FA03F35F
:1007D000DB431B4913400B60194B1B687979BA79CD
:1007E000920001FA02F21146154A0B43136019E018
:1007F000144B1A68BB7903F007039B000F2101FA21
:1008000003F3DB430F4913400B600E4B1B687979F0
:10081000BA7902F00702920001FA02F21146094A7F
:100820000B4313600123FB7300E000BF01E00023D2
:10083000FB73FB7B18461437BD4680BC704700BF76
:10084000000801400408014080B485B000AF0346B1
:10085000FB710023FB73FB79022B02D9FB79042B7C
:1008600010D10C4B1B680B4A23F0E0631360094B5B
:100870001B68FA7912061146064A0B4313600123DE
:10088000FB7301E00023FB73FB7B18461437BD4666
:1008900080BC70470400014090B484B000AF0446AF
:1008A000084611461A462346FB710346BB710B46A8
:1008B0007B7113463B710023FB73FB79042B00F221
:1008C0003781BB79072B02D9BB790F2B03D9BB79B1
:1008D000002B40F02D817B79022B02D97B79072BED
:1008E00003D97B79002B40F023813B79022B02D97D
:1008F0003B79072B03D93B79002B40F01981FB7919
:10090000052B00F2E78001A252F823F02509000828
:100910006B090008B1090008DF090008350A000862
:100920008B0A0008864B00221A70864B1B68854A8A
:1009300023F003031360834B1B68824A43F00103D7
:100940001360814B1B68804A23F4802313607E4B25
:100950001B687D4A43F48033136000BF7A4B1B68E9
:1009600003F40033002BF9D0B5E0754B00221A7068
:10097000744B1B68734A23F003031360714B1B68AD
:10098000704A43F0010313606F4B1B686E4A43F4D7
:10099000802313606C4B1B686B4A43F480331360F5
:1009A00000BF694B1B6803F40033002BF9D092E0C1
:1009B000634B00221A70634B1B68624A23F00303E7
:1009C0001360614B1B68604A43F00103136000BF72
:1009D0005D4B1B6803F00203002BF9D07BE0584B02
:1009E00001221A70584B1B68574A23F0807313601A
:1009F00000BF554B1B685B0E03F00103012BF8D0C1
:100A0000514B1B68504A43F48033136000BF4E4B78
:100A10001B6803F40033002BF9D04A4B1B68494A8A
:100A200043F480331360474B1B68464A23F400337A
:100A3000136050E0424B01221A70434B1B68424A3C
:100A400023F08073136000BF3F4B1B685B0E03F005
:100A50000103012BF8D03C4B1B683B4A43F4803325
:100A6000136000BF384B1B6803F40033002BF9D030
:100A7000344B1B68334A43F480331360314B1B689B
:100A8000304A43F40033136025E02D4B01221A70E5
:100A90002D4B1B682C4A23F08073136000BF2A4B38
:100AA0001B685B0E03F00103012BF8D0264B1B687B
:100AB000254A43F00103136000BF234B1B6803F07A
:100AC0000203002BF9D01F4B1B681E4A23F480330E
:100AD000136000E000BF1B4B1B681A4A23F0F003B1
:100AE0001360184B1B68BA7912011146154A0B4363
:100AF0001360144B1B68134A23F4E0631360114B1B
:100B00001B687A79120211460E4A0B4313600D4B93
:100B10001B680C4A23F4605313600A4B1B683A7934
:100B2000D2021146074A0B4313600123FB7301E015
:100B30000023FB73FB7B18461037BD4690BC704703
:100B4000F0000020041002400010024080B485B084
:100B500000AF03460A46FB711346BB710023FB73CB
:100B6000FB79022B1ED0022B28DC002B02D0012B9C
:100B70000CD023E0164B1A68BB79012101FA03F36C
:100B8000134913430B600123FB731AE0114B1A68DE
:100B9000BB79012101FA03F30E4913430B600123D2
:100BA000FB730EE00C4B1A68BB79012101FA03F3C9
:100BB000094913430B600123FB7302E00023FB731D
:100BC00000BFFB7B18461437BD4680BC704700BF92
:100BD000141002401C1002401810024080B485B06E
:100BE00000AF0346FB710023FB73FB79012B10D888
:100BF0000C4B1B680B4A23F007031360094B1B685F
:100C0000FA7992001146074A0B4313600123FB73E4
:100C100001E00023FB73FB7B18461437BD4680BC04
:100C2000704700BF10E000E080B485B000AF78608E
:100C300039600023FB733B68002B11D00C4B002262
:100C40001A700C4A3B6813600B4A7B6813600B4BAD
:100C50001B680A4A43F0030313600123FB7301E09E
:100C60000223FB73FB7B18461437BD4680BC7047DC
:100C7000F8000020F400002014E000E010E000E0A4
:100C800080B400AF044B1B68034A23F003031360D6
:100C900000BFBD4680BC704710E000E080B500AFEB
:100CA0000B4B1B78002B09D10A4B1B6898470A4B4A
:100CB0001B68094A23F00303136006E0044B1B780A
:100CC000012B02D1034B1B68984700BF80BD00BFBA
:100CD000F8000020F400002010E000E080B400AF35
:100CE0000E4B40F241329A600C4BDB680B4A43F0EA
:100CF0000803D360094BDB68084A43F00403D36060
:100D0000064BDB68054A43F40053D360034B0022D3
:100D10001A6000BFBD4680BC704700BF003801406C
:100D200080B485B000AF78600023FB730FE0FB7BDD
:100D30007A6813441A780C4B5A6000BF0A4B1B6840
:100D400003F04003002BF9D0FB7B0133FB73FB7BEB
:100D50007A6813441B78002BE9D100BF00BF143719
:100D6000BD4680BC704700BF0038014080B485B0EC
:100D700000AF78600123FB7300BF094B1B685B0960
:100D800003F00103012BF8D1054B5B68DAB27B68F5
:100D90001A70FB7B18461437BD4680BC704700BFF5
:100DA0000038014080B500AF184B1B68002B2AD0DB
:100DB000174B1B685B0903F00103012B23D1144B74
:100DC0005968144B1B78DBB21A46C9B2124B9954BE
:100DD000104B1B78DBB21A460F4B9B5CDBB20A2B25
:100DE00007D10A4B1B680C4898470A4B00221A701F
:100DF00006E0084B1B78DBB20133DAB2054B1A7000
:100E0000034B00221A6000BF80BD00BFFC00002021
:100E100000380140640100200001002080B582B04C
:100E200000AF0023FB80BB1D19461F20FFF78CFB82
:100E3000FB88052B0FD10F4B1B78DBB2012B0AD19E
:100E40000D4B0E4A1A600E4B1B680E4A13600D4B79
:100E50001B6898470AE0084B0B4A1A600B4B1B684B
:100E6000084A1360074B1B68984700BF00BF08374C
:100E7000BD4680BD0500002008ED00E000F0000840
:100E800004F00008D00100200034000804340008F9
:100E900080B582B000AF0023FB7100230022002147
:100EA0000220FFF7F9FC0E210220FFF74FFE02217E
:100EB0000220FFF74BFE04210020FFF747FE02202F
:100EC000FFF7C2FC0020FFF789FE0A22092100205B
:100ED000FFF770FB04220A210020FFF76BFBFFF7EE
:100EE000FDFE23492348FFF79FFE234B1B78DBB20F
:100EF0001A46224B13441846FFF738FF0346FB718E
:100F0000FB79012B28D1FFF7BBFE1B4B1B78DBB213
:100F10001A461A4B9B5CDBB20A2B16D1184B1B7876
:100F2000DBB2012B07D1FFF72FFB154B00221A7004
:100F3000144B00221A701148FFF7FEF91248FFF710
:100F4000EFFE0D4B00221A7006E00B4B1B78DBB254
:100F50000133DAB2084B1A70FFF710FA0346012B7F
:100F600001D1FFF75BFF02490848FFF75DFEBCE7D0
:100F70001D0E0008404B4C00CC01002068010020F1
:100F8000040000200500002044100008809698000E
:100F90000D488546AFF300800C480D490D4A0023EB
:100FA00002E0D458C4500433C4188C42F9D30A4A1E
:100FB0000A4C002301E013600432A242FBD300F08C
:100FC00011F8FFF765FFFEE7005000200000002049
:100FD000080000205010000808000020D401002064
:100FE000FEE7000070B500260C4D0D4C641BA410EC
:100FF000A64209D100F01AF800260A4D0A4C641BDB
:10100000A410A64205D170BD55F8043B984701369F
:10101000EEE755F8043B98470136F2E74810000820
:1010200048100008481000084C100008F8B500BF30
:10103000F8BC08BC9E467047F8B500BFF8BC08BCB9
:041040009E46704711
:041044006F6B0000CE
:041048005501000846
:04104C003101000866
:0810500000000008010100008E
:0400000508000F914F
:00000001FF
